:1000000020C03BC05DC038C037C036C035C034C02A
:1000100033C032C031C030C02FC02EC02DC02CC064
:100020002BC02AC029C000C1FDC0E9C0E8C0F8C08B
:10003000F5C0E5C0E4C0E3C0E2C0EEC0EBC0E8C07C
:10004000E4C011241FBECFE5D4E0DEBFCDBF10E079
:10005000A0E6B0E0EAECF3E002C005900D92A03615
:10006000B107D9F710E0A0E6B0E001C01D92A336B9
:10007000B107E1F74BD0A7C1C3CF1F920F920FB6C4
:100080000F9211248F939F9380916000880F80932B
:1000900060009091610080916000892341F412BA60
:1000A0009F918F910F900FBE0F901F90189581E038
:1000B00082BB9F918F910F900FBE0F901F9018954C
:1000C0001F920F920FB60F9211242F938F939F932D
:1000D00021E020936000909161008091600089236D
:1000E00099F412BA809162008F5F809362008091D0
:1000F00062008370809362009F918F912F910F9087
:100100000FBE0F901F90189522BBECCFEF92FF927D
:100110001F93CF93DF93889A81B3837F81BB17BAF4
:100120008FEF88BB85B78C6085BF85B7836085BF3F
:100130008BB780648BBF8BB780688BBF89D0789476
:100140001FEFC0E0D0E080EAE82E8FE0F82EC43048
:10015000D1055CF010936100C7010197F1F71FEF23
:10016000C0E0D0E0C430D105ACF780D0BC018F70C6
:100170009070892B89F5C230D10574F145E050E0CB
:100180000DC02430310509F451C02530310509F482
:100190004FC04C305105F4F44F5F5F4F9A0121502E
:1001A0003040CB01022E02C0969587950A94E2F763
:1001B00080FDEFCF28303105E9F1293031050CF30E
:1001C0002A30310599F12A303105DCF12B30310527
:1001D00001F71B7F2196BBCF21E030E0F901319779
:1001E000CB010E2E02C0969587950A94E2F780FD0A
:1001F00006C0EE30F10518F4ED5EFF4F09942E3085
:10020000310544F72F5F3F4FE9CF1E7F21969FCFE7
:100210001D7FF8CF1F77F6CF1F7BF4CF177FF2CF6C
:100220001B7FF0CF1F7DEECF1F7EECCF1B7FB4CFA7
:10023000177FB2CF80916200823008F4ADCF1E7F6D
:10024000ABCF80916200823008F4A6CF1D7FA4CF8F
:10025000B89AA098A198A298A398A498A598A89AAB
:10026000A99AAA9AAB9AAC9AAD9A08958F929F9246
:10027000AF92BF92CF92DF92EF92FF920F931F93B4
:10028000C09885E8982F9A95F1F783B2E3B303B34A
:10029000E3B2C3B2A3B2C09A8A95F1F793B223B383
:1002A00083B343B363B3A3B3269530E021703070BA
:1002B000220F331F8695869590E081709070880F8D
:1002C000991F880F991F282B81E09822292946958C
:1002D0004695469550E041705070440F551F440FAD
:1002E000551F440F551F242B62956F7070E061708D
:1002F000707062957295707F7627607F7627262BC7
:10030000A295A695A770B0E0A170B070AA0FBB1F10
:10031000A295B295B07FBA27A07FBA27922F9A2BC9
:1003200080E0E695F0E0E170F070EE0FFF1F0695BB
:10033000069510E001701070000F111F000F111FC3
:10034000E02B21E08222E829E694E694E694FF245B
:1003500021E0E222FF24EE0CFF1CEE0CFF1CEE0C51
:10036000FF1CEE29C2945FE0C522DD2421E0C222F9
:10037000DD24C294D29440EFD422DC24C422DC24B5
:10038000EC29A294A69437E0A322BB2421E0A22268
:10039000BB24AA0CBB1CA294B29420EFB222BA24B4
:1003A000A222BA24EA292E2F30E0282B392BC901AA
:1003B0001F910F91FF90EF90DF90CF90BF90AF9083
:0A03C0009F908F900895F894FFCFEE
:00000001FF
